000000"0005        46390589  JAGI  concept BVBA        KREDBEBB   0675354481  00000                                       2
10009735047736314 EUR BE   0030000        0000000000000000310517JAGI  concept BVBA                                           009
2100010000                     1000000001573190310517001170000VIREMENT  BE94735047736314CENTRALISATION FINANCIERE  01061700901 0
2300010000310152348185                                                                                                       0 0
21000200003080461201705310001  00000000015189203105170015000003080461-003 MAE 310517                               01061700901 0
2200020000BRUT:  000000000152151  COM:  000000000000259                                                                      0 0
21000300003080461201705310002  00000000000148403105170015000003080461-001 MC  310517                               01061700901 0
2200030000BRUT:  000000000001487  COM:  000000000000003                                                                      0 0
21000400003080461201705310003  00000000000394303105170015000003080461-002 VIS 310517                               01061700901 0
2200040000BRUT:  000000000003950  COM:  000000000000007                                                                      0 0
8009735047736314 EUR BE   0030000        0000000000000000010617                                                                0
9               000010000000001573190000000001573190                                                                           2
0000001061700005        46390589  Fradi Express BVBA        KREDBEBB   0675631922  00000                                       2
10009735046031538 EUR BE   0030000        0000000000000000310517Fradi Express BVBA                                           009
2100010000                     1000000003898830310517001170000VIREMENT  BE24735046031538CENTRALISATION FINANCIERE  01061700901 0
2300010000310152348185                                                                                                       0 0
21000200003080462201705310001  00000000038888403105170015000003080462-003 MAE 310517                               01061700901 0
2200020000BRUT:  000000000389592  COM:  000000000000708                                                                      0 0
21000300003080462201705310002  00000000000099903105170015000003080462-001 MC  310517                               01061700901 0
2200030000BRUT:  000000000001001  COM:  000000000000002                                                                      0 0
8009735046031538 EUR BE   0030000        0000000000000000010617                                                                0
9               000008000000003898830000000003898830                                                                           2
0000001061700005        46390589  CARREFOUR BELGIUM SA      GEBABEBB   00448826918 00000                                       2
10103001804406730 EUR BE   0030000        0000000000000000310517CARREFOUR BELGIUM SA                                         103
2100010000                     1000000328039160310517001170000VIREMENT  BE15001804406730CENTRALISATION FINANCIERE  01061710301 0
2300010000310152348185                                                                                                       0 0
21000200003080035201705310001  00000000437112303105170015000003080035-003 MAE 310517                               01061710301 0
2200020000BRUT:  000000004376548  COM:  000000000005425                                                                      0 0
21000300003080035201705310002  00000000022725103105170015000003080035-001 MC  310517                               01061710301 0
2200030000BRUT:  000000000227968  COM:  000000000000717                                                                      0 0
21000400003080035201705310003  00000000037721503105170015000003080035-002 VIS 310517                               01061710301 0
2200040000BRUT:  000000000378637  COM:  000000000001422                                                                      0 0
21000500003080036201705310001  00000000773890103105170015000003080036-003 MAE 310517                               01061710301 0
2200050000BRUT:  000000007748190  COM:  000000000009289                                                                      0 0
21000600003080036201705310002  00000000024526703105170015000003080036-001 MC  310517                               01061710301 0
2200060000BRUT:  000000000245607  COM:  000000000000340                                                                      0 0
21000700003080036201705310003  00000000019191403105170015000003080036-002 VIS 310517                               01061710301 0
2200070000BRUT:  000000000192193  COM:  000000000000279                                                                      0 0
21000800003080037201705310001  00000000817806603105170015000003080037-003 MAE 310517                               01061710301 0
2200080000BRUT:  000000008187955  COM:  000000000009889                                                                      0 0
21000900003080037201705310002  00000000027862603105170015000003080037-001 MC  310517                               01061710301 0
2200090000BRUT:  000000000279408  COM:  000000000000782                                                                      0 0
21001000003080037201705310003  00000000037827803105170015000003080037-002 VIS 310517                               01061710301 0
2200100000BRUT:  000000000379363  COM:  000000000001085                                                                      0 0
21001100003080281201705310001  00000000264679603105170015000003080281-003 MAE 310517                               01061710301 0
2200110000BRUT:  000000002650048  COM:  000000000003252                                                                      0 0
21001200003080281201705310002  00000000006881503105170015000003080281-001 MC  310517                               01061710301 0
2200120000BRUT:  000000000068924  COM:  000000000000109                                                                      0 0
21001300003080281201705310003  00000000004594403105170015000003080281-002 VIS 310517                               01061710301 0
2200130000BRUT:  000000000046023  COM:  000000000000079                                                                      0 0
21001400003080303201705310001  00000000274724503105170015000003080303-003 MAE 310517                               01061710301 0
2200140000BRUT:  000000002750724  COM:  000000000003479                                                                      0 0
21001500003080303201705310002  00000000007014803105170015000003080303-001 MC  310517                               01061710301 0
2200150000BRUT:  000000000070251  COM:  000000000000103                                                                      0 0
21001600003080303201705310003  00000000009865303105170015000003080303-002 VIS 310517                               01061710301 0
2200160000BRUT:  000000000098833  COM:  000000000000180                                                                      0 0
21001700003080419201705310001  00000000073321503105170015000003080419-003 MAE 310517                               01061710301 0
2200170000BRUT:  000000000734095  COM:  000000000000880                                                                      0 0
21001800003080419201705310002  00000000002023403105170015000003080419-001 MC  310517                               01061710301 0
2200180000BRUT:  000000000020310  COM:  000000000000076                                                                      0 0
21001900003080419201705310003  00000000000489403105170015000003080419-002 VIS 310517                               01061710301 0
2200190000BRUT:  000000000004910  COM:  000000000000016                                                                      0 0
21002000003080420201705310001  00000000187873103105170015000003080420-003 MAE 310517                               01061710301 0
2200200000BRUT:  000000001881068  COM:  000000000002337                                                                      0 0
21002100003080420201705310002  00000000002895203105170015000003080420-001 MC  310517                               01061710301 0
2200210000BRUT:  000000000029035  COM:  000000000000083                                                                      0 0
21002200003080420201705310003  00000000004623803105170015000003080420-002 VIS 310517                               01061710301 0
2200220000BRUT:  000000000046347  COM:  000000000000109                                                                      0 0
21002300003080425201705310001  00000000236511003105170015000003080425-003 MAE 310517                               01061710301 0
2200230000BRUT:  000000002367981  COM:  000000000002871                                                                      0 0
21002400003080425201705310002  00000000005042103105170015000003080425-001 MC  310517                               01061710301 0
2200240000BRUT:  000000000050480  COM:  000000000000059                                                                      0 0
21002500003080425201705310003  00000000001187903105170015000003080425-002 VIS 310517                               01061710301 0
2200250000BRUT:  000000000011931  COM:  000000000000052                                                                      0 0
8103001804406730 EUR BE   0030000        0000000000000000010617                                                                0
9               000052000000328039160000000328039160                                                                           2
0000001061700005        46390589  ROB SA                    GEBABEBB   00402824964 00000                                       2
10051001805448165 EUR BE   0030000        0000000000000000310517ROB SA                                                       051
2100010000                     1000000047569200310517001170000VIREMENT  BE18001805448165CENTRALISATION FINANCIERE  01061705101 0
2300010000310152348185                                                                                                       0 0
21000200003080087201705310001  00000000380597603105170015000003080087-003 MAE 310517                               01061705101 0
2200020000BRUT:  000000003810537  COM:  000000000004561                                                                      0 0
21000300003080087201705310002  00000000043224203105170015000003080087-001 MC  310517                               01061705101 0
2200030000BRUT:  000000000433146  COM:  000000000000904                                                                      0 0
21000400003080087201705310003  00000000051870203105170015000003080087-002 VIS 310517                               01061705101 0
2200040000BRUT:  000000000519740  COM:  000000000001038                                                                      0 0
8051001805448165 EUR BE   0030000        0000000000000000010617                                                                0
9               000010000000047569200000000047569200                                                                           2
0000001061700005        46390589  CARREFOUR BELGIUM SA      BBRUBEBB   00448826918 00000                                       2
10111375101331535 EUR BE   0030000        0000000000000000310517CARREFOUR BELGIUM SA                                         111
2100010000                     1000000015195970010617001170000VIREMENT  BE57375101331535CENTRALISATION FINANCIERE  01061711101 0
2300010000310152348185                                                                                                       0 0
21000200002705427201706010001  00000000040592303105170015000002705427-003 MAE 310517                               01061711101 0
2200020000BRUT:  000000000407361  COM:  000000000001438                                                                      0 0
21000300002705427201706010002  00000000013521403105170015000002705427-001 MC  310517                               01061711101 0
2200030000BRUT:  000000000135693  COM:  000000000000479                                                                      0 0
21000400002705427201706010003  00000000035765503105170015000002705427-002 VIS 310517                               01061711101 0
2200040000BRUT:  000000000358922  COM:  000000000001267                                                                      0 0
21000500003080185201705310001  00000000028897903005170015000003080185-003 MAE 300517                               01061711101 0
2200050000BRUT:  000000000290000  COM:  000000000001021                                                                      0 0
21000600003080185201705310002  00000000003985903005170015000003080185-001 MC  300517                               01061711101 0
2200060000BRUT:  000000000040000  COM:  000000000000141                                                                      0 0
21000700003080185201705310003  00000000005480603005170015000003080185-002 VIS 300517                               01061711101 0
2200070000BRUT:  000000000055000  COM:  000000000000194                                                                      0 0
21000800003080185201705310004  00000000014349303105170015000003080185-003 MAE 310517                               01061711101 0
2200080000BRUT:  000000000144000  COM:  000000000000507                                                                      0 0
21000900003080185201705310005  00000000003188703105170015000003080185-001 MC  310517                               01061711101 0
2200090000BRUT:  000000000032000  COM:  000000000000113                                                                      0 0
21001000003080185201705310006  00000000006178103105170015000003080185-002 VIS 310517                               01061711101 0
2200100000BRUT:  000000000062000  COM:  000000000000219                                                                      0 0
8111375101331535 EUR BE   0030000        0000000000000000010617                                                                0
9               000022000000015195970000000015195970                                                                           2
0000001061700005        46390589  CARREFOUR DRIVE 2 SPRL    BBRUBEBB   00539931494 00000                                       2
10096363037127091 EUR BE   0030000        0000000000000000310517CARREFOUR DRIVE 2 SPRL                                       096
2100010000                     1000000002214450010617001170000VIREMENT  BE23363037127091CENTRALISATION FINANCIERE  01061709601 0
2300010000310152348185                                                                                                       0 0
21000200002705733201706010001  00000000000750702905170015000002705733-003 MAE 290517                               01061709601 0
2200020000BRUT:  000000000007534  COM:  000000000000027                                                                      0 0
21000300002705733201706010002  00000000002615602905170015000002705733-001 MC  290517                               01061709601 0
2200030000BRUT:  000000000026385  COM:  000000000000229                                                                      0 0
21000400002705733201706010003  00000000003503503005170015000002705733-003 MAE 300517                               01061709601 0
2200040000BRUT:  000000000035159  COM:  000000000000124                                                                      0 0
21000500002705733201706010004  00000000004002103005170015000002705733-001 MC  300517                               01061709601 0
2200050000BRUT:  000000000040443  COM:  000000000000422                                                                      0 0
21000600002705733201706010005  00000000011272603005170015000002705733-002 VIS 300517                               01061709601 0
2200060000BRUT:  000000000113327  COM:  000000000000601                                                                      0 0
2100070000                     0000000000118120010617001660000VIREMENT  BE23363037127091CENTRALISATION FINANCIERE  01061709601 0
2300070000310152348185                                                                                                       0 0
21000800002705733201706010006  10000000000000102905170015000002705733-003 MAE 290517                               01061709601 0
2200080000BRUT:  000000000000001  COM:  000000000000000                                                                      0 0
21000900002705733201706010007  10000000000981602905170015000002705733-001 MC  290517                               01061709601 0
2200090000BRUT:  000000000009816  COM:  000000000000000                                                                      0 0
21001000002705733201706010008  10000000000199502905170015000002705733-002 VIS 290517                               01061709601 0
2200100000BRUT:  000000000001995  COM:  000000000000000                                                                      0 0
8096363037127091 EUR BE   0030000        0000000000000000010617                                                                0
9               000022000000002096330000000002096330                                                                           2
